S02B0000544849524450415254595F4C5749505F5241575F42415349435F485454505F4558414D504C45352EB7
S214400000404C4020C90D4000C50D4000C50D400085
S214400010C50D4000C50D4000C50D40000000000065
S214400020000000000000000000000000C50D400079
S214400030C50D400000000000C50D4000C50D400045
S214400040C50D4000C50D4000C50D4000C50D400023
S214400050C50D4000C50D4000C50D4000C50D400013
S214400060C50D400000000000F90940000D0A4000A0
S214400070210A4000C50D4000C50D4000C50D40009A
S214400080350A4000490A4000C50D4000C50D4000F5
S214400090C50D4000C50D4000C50D4000A16540009F
S2144000A0C50D4000C50D4000C50D4000C50D4000C3
S2144000B0C50D4000C50D4000C50D4000C50D4000B3
S2144000C0C50D4000C50D4000C50D4000C50D4000A3
S2144000D000000000C50D4000000000009D5E40008E
S2144000E0C50D4000C50D4000C50D4000C50D400083
S2144000F0C50D4000C50D4000C50D4000C50D400073
S214400100C50D4000C50D4000C50D4000C50D400062
S214400110C50D400000000000000000000000000088
S214400120C50D4000C50D4000C50D4000C50D400042
S214400130C50D400000000000C50D4000C50D400044
S21440014010B5054C237833B9044B13B10448AFF3CC
S21440015000800123237010BDA0084020000000004E
S214400160E4AC4000084B10B51BB108490848AFF353
S21440017000800848036803B910BD074B002BFBD02E
S214400180BDE81040184700BF00000000A40840200B
S214400190E4AC4000E4AC40000000000010B510485D
S2144001A0104B98473E2100200F4B98470F4CA047D6
S2144001B00028FCD00E4B98470E4A0F4B9A620F4CC5
S2144001C0A0470028FCD002200D4B984710200D4B2E
S2144001D098470D4B98470D48024B984710BD00BFB7
S2144001E000A3E111B50F4000010B4000550B400045
S2144001F0650B4000013F182000060E40750B40007E
S2144002005D0A4000990A4000A50E400080D1F008E3
S21440021090B92DE9F0410C469046002A0FDD8F1824
S214400220084E094D306821462B6898470134A7424E
S214400230F8D14046BDE8F0814FF0FF3070470020CF
S214400240BDE8F081AC374020A43740200138022872
S21440025015D82DE9F0410E4614469AB10D46DFF802
S21440026038800C4FD8F8000015F8011B3B689847BB
S21440027000280ADBA81B013CF4D1BDE8F0814FF012
S214400280FF3070470020BDE8F0814FF0FF30BDE8FA
S214400290F08100BFA8374020AC37402010B54FF45F
S2144002A000423B4B5A60A3F545633A4A5A60A2F572
S2144002B080725A60BFF34F8FBFF36F8F364BD3F8C1
S2144002C0902222F00102C3F89022D3F8942222F022
S2144002D00102C3F89422BFF34F8FBFF36F8F0A20FB
S2144002E02E4CA0470B20A0470C20A0471020A0472C
S2144002F01120A0472A4B4FF480721A61C3F8A02001
S2144003001A63A3F580634FF400625A61C3F8A020D5
S2144003105A66C3F890205A651A62C3F88420196F4B
S21440032021F400611967596F21F400615967C3F8D9
S214400330C020C3F8D420C3F8B0204FF400121A6689
S214400340C3F890205A655A62C3F88020196F21F48A
S21440035000111967596F21F4001159675A60114A04
S214400360D2F8143143F01003C2F814310E4B102269
S2144003701A66C3F890205A655A62C3F88020196FEF
S21440038011431967596F114359675A6010BD00BF32
S21440039050180E400C08005A00ED00E0850B400057
S2144003A000120E400080084000100E40F0B583B0AA
S2144003B004460F461646036843F01003036001AB3D
S2144003C00122364DA84720B1226822F01002226052
S2144003D061E0019B13F0040F05D1236823F010035E
S2144003E02360FF2057E02EB9236823F010032360D4
S2144003F0002050E06B461E2239462046274DA8472F
S21440040020B1226822F01002226044E0019B13F4DF
S214400410805F06D0009A12F0050F0CBF0122002222
S21440042000E0012213F4005F03D0009911F0020FA0
S21440043028D113F4006F03D0009B13F0010F08D1AE
S2144004404AB1012300E00023626842F00102626084
S21440045008E0002302E0012300E00023626822F067
S2144004600102626023B1636843F00203636003E005
S214400470636823F002036360236823F0100323605D
S214400480002008E013F4006FDDD0009B13F0010F4E
S214400490E3D10023D8E703B0F0BD00BFF507400026
S2144004A02DE9F04182B004460D46036843F0100340
S2144004B0036001AB0022594EB04720B1226822F0BB
S2144004C010022260A6E0019B23F4B04343F480630D
S2144004D00193002229462046514EB04720B122685B
S2144004E022F01002226095E040F2E11304222946F1
S2144004F020464B4EB04720B1226822F010022260C0
S21440050088E001AB002229462046444EB04720B141
S214400510226822F0100222607CE0019B43F44453A0
S21440052001930022294620463D4EB04720B122681E
S21440053022F0100222606DE0019B23F4806343F4B6
S21440054000730193002229462046354EB04720B11D
S214400550226822F0100222605CE0324E4FF0010822
S2144005602E4F01AB424629462046B84720B1226866
S21440057022F0100222604DE0019B13F0200F07D1BD
S214400580013EEED1236823F010032360012041E0B2
S2144005906B46052229462046204DA84720B12268B2
S2144005A022F01002226035E0009B13F4807F09D1D0
S2144005B013F0400F0CD113F0800F08BF002309D072
S2144005C0002300E00123626842F00102626005E019
S2144005D00123FFE7626822F00102626023B163688C
S2144005E043F00203636003E0636823F00203636042
S2144005F0E36823F00103E3600B4B1A6842F00802FD
S2144006001A601A6842F004021A60236823F0100346
S2144006102360002002B0BDE8F08100BFF50740002F
S2144006205508400040420F00000005402DE9F043C9
S21440063083B005468946036843F0100303604FF4D1
S214400640004302AE46F8043D00220E4CA0470A2462
S2144006504FF000080C4F3346424649462846B847B6
S214400660013C019B13F4004F01D0002CF3D12B68C2
S21440067023F010032B60B4FA84F0400903B0BDE8C1
S214400680F08300BF55084000F50740002DE9F043D1
S21440069085B00646884614460125009500232A461E
S2144006A04FF480614448454FB8472A464FF480414E
S2144006B04348444B984740F2FF324FF0006142486F
S2144006C0424B984741464248424B9847424B9C4291
S2144006D06DD8424B9C420FD8414B9C420FD8414B61
S2144006E09C420FD8404B9C420FD8404B9C428CBFFC
S2144006F04FF4802300230AE04FF4A01307E04FF4A2
S214400700801304E04FF4402301E04FF40023726866
S21440071022F4E012726074681C43746004AB0022DA
S21440072043F8042D326842F01002326002224146FD
S21440073030462F4CA047039B222B31D044462025E1
S2144007404FF002092A4F013404F01F0403AB4A4617
S21440075021463046B847039B222B04D06B1E13F02D
S214400760FF05F0D110E0336823F01003336003AB8D
S2144007700122214630461E4DA847A04517D0414687
S2144007803046144B984712E0336823F0100333602A
S2144007900DE003AB012241463046154CA04706E02B
S2144007A0336823F010033360B8F1FF0FF1D1002017
S2144007B005B0BDE8F08300BF00120E407909400046
S2144007C0000E0E404109400000140E40AD084000A7
S2144007D0000005402D064000001C4E0E00688909AA
S2144007E0000E270700B4C404005A6202002D3101EF
S2144007F0F507400010B483B0846814F0040FFBD0B3
S214400800920402F4F802114C1443C90501F07861D1
S21440081021434163002201920D4905E0019A0132CD
S2144008200192019A8A420CD8826812F0040FF5D0E1
S214400830826812F0040FFBD0426B92B21A6000201E
S21440084000E0012003B05DF8044B704700000260F2
S2144008503F420F0010B483B0846814F0040FFBD0FE
S214400860920402F4F8020F4C1443C90501F0786173
S21440087021439BB219434163002301930A4A05E092
S214400880019B01330193019B934205D8836813F083
S214400890040FF5D0002000E0012003B05DF8044BC3
S2144008A0704700BF000002503F420F004264B1F163
S2144008B0C05F2FD007D8B1F1006F14D0B1F1805F80
S2144008C01ED039B97047B1F1205F37D004D8B1F1A6
S2144008D0005F29D042607047B1F1405F2ED0B1F141
S2144008E0605F2BD0F6E710B4046F016FD34321400E
S2144008F019400167446F416F21400B4043671AE03F
S214400900036F13430367416F436F0B4023EA0203B1
S2144009104367DFE7016F036F0B4023EA0203036779
S214400920436F13434367D5E7036F13430367436F30
S21440093013434367CEE742605DF8044B704700BF01
S214400940416412F0010F01D0416600E0016612F0EA
S2144009500A0F01D0016200E0416212F0020F02D09D
S214400960C0F8801004E012F0080F01D0C0F88410E0
S21440097041610160704700BF10B44164019C0CB1F6
S214400980416600E001660BB1016500E041650AB1D1
S214400990016300E04163016101605DF8044B70470C
S2144009A0C06C7047806C70472DE9F041044688461D
S2144009B00E4B9847054620460D4B9847054013D0AA
S2144009C00C4C04F160062368434508D1616829420F
S2144009D005D0E36840469847636825EA0305B44275
S2144009E002D01034002DEED1BDE8F081A1094000C0
S2144009F0A5094000BC08402008B50A210148024B22
S214400A00984708BD000E0E40A909400008B50B21C6
S214400A100148024B984708BD00100E40A909400007
S214400A2008B50C210148024B984708BD00120E40FD
S214400A30A909400008B510210148024B984708BD57
S214400A4000140E40A909400008B511210148024B88
S214400A50984708BD00160E40A9094000032807D055
S214400A60042808D002280CBF4FF48072002204E00D
S214400A704FF4407201E04FF4007206490B6B23F4CA
S214400A80407313430B630A46936E13F0080FFBD074
S214400A90704700BF00060E40184A136B23F07003E1
S214400AA018431063936E13F0080F03D009E0013B20
S214400AB003D11EE04FF4805310498A6E12F0080F9F
S214400AC0F5D00E4A136B23F0030343F0020313637F
S214400AD0906E10F0080004D000207047013B03D110
S214400AE009E04FF4805305498A6E12F0080FF5D09E
S214400AF07047012070470120704700BF00060E4037
S214400B0038B10E490B6A0E4A1A400E4B13430B621D
S214400B1070470A48036A090289B20B4A1A400B4BCF
S214400B201343194301620246936E13F0010FFBD044
S214400B30024A116A064B0B431362704700060E408A
S214400B40FCFFC8FE02003701FCFFC8FF010037006B
S214400B5000003701024B986E00F48030704700BFAB
S214400B6000060E404FF00052014B9A62704700BF9D
S214400B7000060E40024B986E00F00200704700BF21
S214400B8000060E403F281ED81F280CD8114B9A69E5
S214400B9001238340934318D0012303FA00F00D4B02
S214400BA018610020704720380A4BD3F808210123EB
S214400BB0834093430BD0012303FA00F0054BC3F860
S214400BC00001002070470120704700207047002039
S214400BD0704700BF00060E4010B489014318022437
S214400BE044504FF0FF319962196A5A605DF8044BE1
S214400BF0704700BF890105234350704700EB8111C1
S214400C00CA61704700EB81114A627047F0B486B003
S214400C1002240194082402942024039480240494FB
S214400C200A9CE40B0594B0EB510F1CD84C0CA04228
S214400C301FD201AE012556F8044FB1FBF4F4270C41
S214400C40844212D3874215D90135052DF3D10020B1
S214400C5013E006A901EB850151F8141C116033B16D
S214400C601D60012009E0002007E0002005E001208B
S214400C7003E00025002AECD1F1E706B0F0BC70474F
S214400C80436913F0020F02D0C16100207047012073
S214400C90704700BF436913F0010F03D083690B70A0
S214400CA0002070470120704710B40C0194420FD9C1
S214400CB01AE0416841F400214160120402F4E02247
S214400CC01A43026200201CE001201AE0012018E0CE
S214400CD0630803EBC202B2FBF4F2D3085C1E4FF685
S214400CE0FE718C42E9D9EFE7C9004B0803EBC2021C
S214400CF0B2FBF1F2D3085C1E4FF6FE718C42E5D88B
S214400D00D7E75DF8044B7047084BC0F8E430002343
S214400D1043604362836288230360242303604FF466
S214400D20807303604FF400230360704700415355BF
S214400D3070B505460C4616460F4B984700220F4B9B
S214400D401A609CB13246216828460D4B98470246A9
S214400D5070B96168A368194323691943E3680B4374
S214400D6006490B6069680B436B6002E0012200E0B5
S214400D700122104670BD00BF090D40002C094020DE
S214400D80A90C400040230360704700BF1023036057
S214400D90704700BF436913F0020F04D0C1F3080147
S214400DA0C161002070470120704700BF436913F0BF
S214400DB0010F05D08369C3F308030B60002070471A
S214400DC001207047FEE700BF00B583B0274B284A96
S214400DD09A4203D0274B254A9A4204D3264B274AA9
S214400DE09A420FD31AE02149254B5B1A23F003039E
S214400DF004331F4A134452F8040B41F8040B9A423A
S214400E00F9D1EBE71F4B204AD21A22F003021A44CC
S214400E10043B002143F8041B9342FBD11B4A1C4B66
S214400E2023F07F039360EFF31083B3FA83F35B09F9
S214400E30019372B6BFF35F8F0022164B1A7001996A
S214400E40154A136843F470031360BFF34F8FBFF324
S214400E506F8F29B101220F4B1A70BFF35F8F62B6B6
S214400E600E4B98470E4B9847FEE700BF00004020C9
S214400E70E4AC40009C0840203C484020A00840206D
S214400E809B084020A40840203F48402000ED00E05A
S214400E90000040000000402088ED00E0F968400077
S214400EA0156840003C4B1B6B03F00303012B0FD02F
S214400EB013B1022B29D057E0384B5B6913F0800FF3
S214400EC014BF4FF400424FF4FA42354B1A604BE0E1
S214400ED0314B1B6A13F0807F03D0324A304B1A6086
S214400EE042E0314A2E4B1A602B4B1B6A03F07003CC
S214400EF0102B02D0202B04D036E02C4A284B1A6008
S214400F0032E0284A264B1A602EE0234B1B6A13F029
S214400F10807F03D0234A224B1A6012E0224A204B9D
S214400F201A601D4B1B6A03F07003102B02D0202B57
S214400F3004D006E01D4A1A4B1A6002E0194A184BC4
S214400F401A60154B1B6B03F00303022B0CD1124A9D
S214400F50936A926A1248C3F30A41036801FB03335B
S214400F60D2B2B3FBF2F303600B4B1B6B03F0700380
S214400F70702B07D10A4A13680D49A1FB03135B087F
S214400F8013607047044B1B6B0549C3F302120B6892
S214400F90D3400B60704700BF00060E4010180E404E
S214400FA004004020001BB70000093D0000127A00F4
S214400FB0ABAAAAAA124B984204D84FF08062114BB3
S214400FC01A607047104B984203D8104A0D4B1A606F
S214400FD070470F4B984203D80E4A0A4B1A60704728
S214400FE00D4B984203D80D4A064B1A6070470C4B7F
S214400FF0984294BF4FF004220A4A024B1A60704748
S214401000FF2C3101000C0E40FF5962020001000423
S214401010FF86930300020004FFB3C40400030004E9
S214401020FFE0F50500050004094B1B6813B9094AA3
S214401030074B1A60064B1B681A180749914204DB97
S2144010401046034A1060184670474FF0FF3070470E
S21440105030094020404E4020FCFF45204FF0FF30F6
S214401060704700BF4FF400534B600020704700BFEE
S2144010700120704700207047030A43EA002080B2F0
S214401080704700BF030A43EA002080B2704700BFA3
S214401090030E43EA0062030203F47F031343000A8D
S2144010A000F47F401843704708B5014B984708BD89
S2144010B0911040002DE9F04385B08046894615469C
S2144010C0002224210120224B984700283DD0064686
S2144010D0D8F80470446884F800906570002525713F
S2144010E06571A571E571D0F804C0D8F80430D3F81E
S2144010F000E058689968D3F80C80CCF808E0CCF843
S2144011000C00CCF81010CCF81480D3F810E05869D6
S2144011109969CCF818E0CCF81C00CCF82010A570E3
S214401120E570718920460B4B98476080FB6804AA9F
S21440113042F8043D012301930095FF23294630469B
S214401140054CA0473046054B984705B0BDE8F083B0
S21440115049254000ED13400039174000E92440007F
S2144011602DE9F04385B00646884647683C7804F04B
S2144011700F04A40065422DB22946464B98470028E6
S2144011807ED13389032B7BD973681B78082B73D1A8
S214401190414BD3F8009041464846404B984720B9CB
S2144011A009F0F009B9F1E00F03D130463C4B9847BF
S2144011B06DE03389072B63D930463A4B984718B1D0
S2144011C03046374B984762E024B222213046314BB6
S2144011D09847F8B1214630462E4B9847002853D1C1
S2144011E0002231890220304B9847814600284BD058
S2144011F031462E4B9847002846D1D9F804702946E8
S2144012004846244B984700283ED13046244B9847C2
S2144012104E4606E06FF0210130461E4B98470028A8
S21440122032D172681C4B1B68FB60214B1B683B61CC
S2144012300023137053884FF6F6718B428CBF0933E8
S21440124008335380FF233B720023BB72FB7214218A
S2144012503846184B98477881214630460D4B98477C
S21440126050B9CDF808800123019300220092FF2355
S21440127009493046104CA0473046094B984706E08F
S2144012803046074B984702E03046054B984705B036
S214401290BDE8F08379244000B837402079174000F5
S2144012A0E9244000FD1340004925400055274000F2
S2144012B0B0374020ED1340004516400008B50A46BA
S2144012C00321014B984708BDB510400008B50A46B3
S2144012D00B21014B984708BDB510400070B483B051
S2144012E00023ADF8063000F0010616F0FF0F06D0DA
S2144012F0994204DD03788DF8073001390130012921
S21440130010DD04460B46002234F8025B2A44023BBA
S214401310012BF9DC02394B085C1C00EB4400A1EBC6
S214401320430100E00022002902DD03788DF80630F4
S214401330BDF80600024490B200EB124293B203EBB3
S214401340124026B103029BB2C0F30720184380B276
S21440135003B070BC704700BF2DE9F0478A469146FF
S214401360984600B30546002634461E4F698968688D
S214401370B847204484B204EB10446B8913F0010F45
S21440138007D0C6F10106F6B223029BB2C4F3072487
S2144013901C432D68002DE9D136B123029BB2C4F31D
S2144013A007241C4300E00024DAF80030D9F8000097
S2144013B01A0C12FA83F313FA80F303EB104004443A
S2144013C04046094DA8470444BDF82000A84720449D
S2144013D083B203EB104083B203EB1040C04380B2AD
S2144013E0BDE8F087DD1240007910400008B5024B9A
S2144013F09847C04380B208BDDD124000F8B500B340
S214401400054600263446114F69896868B847204427
S21440141084B204EB10446B8913F0010F07D0C6F179
S2144014200106F6B223029BB2C4F307241C432D6880
S214401430002DE9D136B123029BB2C4F307241C43E6
S21440144000E00024E04380B2F8BD00BFDD1240005B
S2144014500E4B1B686BB193F82D2012F0010F05D090
S21440146001685A684A4099680A420DD01B68002BAA
S214401470F1D1074B186840B190F82D3003F00103C6
S214401480002B08BF0020704718467047D4474020BE
S214401490D84740202DE9F84F0546D0F8048098F804
S2144014A000301A09042A02D0574B9847A9E00F4645
S2144014B003F00F039C00B8F80200544B98470646CA
S2144014C06B89A34202D32B89834203D228464E4BD4
S2144014D0984796E0214640464D4B984718B12846D7
S2144014E0494B98478DE0314628464A4B9847D8F8AE
S2144014F01020494B1A60D8F80C20484B1A603C46DE
S2144015000126DFF814A1DFF818B1DFF8349194F81B
S2144015102D3013F0010F0BD014F1040F08D0636880
S21440152033B1DAF8000083420DD02146D84750B98F
S21440153016B1D9F8004000E02468BC4208BF3C68B9
S2144015400026002CE3D13946344B1868344B984774
S21440155028B9324B1B6803F0F003E02B03D1284632
S214401560294B98474DE01CB92846274B984748E0FA
S214401570B8F8063023F0C0039BB23BB12846294B4F
S2144015809847054600283CD0D0F80480264B1F607C
S214401590264BC3F8008098F80930062B09D0112B4B
S2144015A002D0012B0FD109E039462846204B9847F8
S2144015B01EE0394628461F4B984719E039462846CC
S2144015C01D4B984714E03946134B1868144B984700
S2144015D058B9114B1B6803F0F003E02B05D0C5F853
S2144015E0048002212846154B98472846064B9847C4
S2144015F000230D4A13600D4A1360084A1360064ADA
S21440160013600020BDE8F88FE924400085104000B4
S214401610ED1340009D264000B8374020B0374020AC
S21440162079174000E9194000B4374020BC374020C5
S2144016309D544000193F400061114000BD124000DB
S214401640D44740202DE9F04F87B0054602919DF8DB
S21440165040909DF844B0129E0192002A48D0984689
S21440166017461421304B9847002858D16C6884F8A8
S214401670088084F809B048EA0B2A3B6823611A0CB4
S21440168012FA83F203924523237084F801904FEABE
S214401690092949EA030B2889244FB84780466080C9
S2144016A00023A371E371DFF88C90B9F80000B847C7
S2144016B0A080B9F800300133A9F80030029B0BB186
S2144016C01B6813B97368E36000E0E360E268039B5D
S2144016D013FA82F303EB12435B445344984440446A
S2144016E083B203EB104000EB1040C043608105E03E
S2144016F043681B6906AA42F8043D0192B38C43B185
S2144017002A899A4205D9019A31462846084B984775
S21440171007E07369019A29463046984701E06FF022
S214401720010007B0BDE8F08F7924400079104000F2
S214401730511D400034094020F0B585B005460E46A0
S21440174014461F4610460A4B984768B102909DF8CB
S2144017502C3001939DF8283000933B462246314674
S2144017602846044CA04701E06FF0030005B0F0BDEA
S21440177051144000451640000246431E13F1030F25
S21440178014D891F82D3003F0020303F0FF0093B114
S2144017904B689A420CD0896853400B420AD1C943E1
S2144017A031EA02030CBF0120002070470120704739
S2144017B000207047002070472DE9F04F85B001911A
S2144017C003680DF1100E4EF8043D0DF1100B8C46DB
S2144017D00026B046274F4FF02E0A75469EF800303A
S2144017E0414600E02146A7FB0340C00800EB8004CA
S2144017F0A3EB44034C1CE4B230330DF1100989448A
S21440180009F8083C00F0FF030028EBD185F800807B
S2144018100EF1010EBCB1B24224DD6346741CCCEB23
S2144018200404CCEB060604E00139C9B2981982429A
S2144018301ADD1D1904A8084410F8080C03F8010B1B
S2144018400029F1D101E0354663466E1CAA420DDD03
S21440185003F1010C83F800A0DE45BED100221A70C9
S214401860019804E0002002E0002000E0002005B0DF
S214401870BDE8F08FCDCCCCCC08B510220149024B48
S214401880984708BD38094020B91740002DE9F04771
S21440189081468A4645686B689A88D2B91B68436019
S2144018A06A68034653F8081F5E689C68D8681160EB
S2144018B056609460D06019691161012128461A4B20
S2144018C098472846194B984784B22846184B98475D
S2144018D000E00024D9F804606EB1DFF85080144F61
S2144018E073681D683046C047204484B23046B847C7
S2144018F02E46002DF4D10F4B1B68994504D1D9F8DC
S21440190000200C4B1A6003E0D9F80030CAF80030CB
S21440191049460420084B9847084A13881B1B1380E7
S2144019202046BDE8F08700BFCD124000FD264000AF
S214401930E924400048094020352340004C09402017
S2144019402DE9F843054688460026184FDFF8609094
S2144019503B6843B3D5F80CE000242146204601E01E
S214401960194613465A69724509D1D5F810C09A6986
S214401970624504D1B3F80CC0AA88944509D0013416
S21440198030B193F81FC0C27F944598BF184600E018
S21440199018461A68002AE3D108B1C84706444645A7
S2144019A001DA012CD4DC3046BDE8F88348094020F3
S2144019B08D1840000A4B186880B170B50024094E57
S2144019C0C37F23B1013BC3770446006803E0056844
S2144019D02146B04728460028F2D170BD704700BF68
S2144019E0480940208D1840002DE9F04F83B0074647
S2144019F04668337803F00F03052B40F05481F08897
S214401A00AF4CA04783467088A047019096F800A048
S214401A103846AC4B98478046AB4B1B8803440A2B52
S214401A200CDD01463046A94B9847002800F03B8124
S214401A30A54B1B8843440A2B00F33581A44B1C68F6
S214401A40B4B1F268002500E01C466369934207D1B2
S214401A503369A169994203D1A189B388994204D0D8
S214401A6023682546002BEFD102E0002C37D12C46C8
S214401A700420984B9847814668B941463046934B78
S214401A809847804500F30F810420924B9847814643
S214401A90002800F008812022002148468E4B9847B7
S214401AA0032389F81F308A4B1A68C9F80020C3F808
S214401AB0009032687568B068F168C9F80820C9F8BF
S214401AC00C50C9F81000C9F814103269C9F818202B
S214401AD0B9F1000F00F0E78025464C4617E0F08845
S214401AE0774B9847C0F30C0088B9E089744B984709
S214401AF0C0F30C0058B13268D6F804E0B068F1681C
S214401B00A260C4F80CE0206161613269A2616E4A4D
S214401B1013889844A2F80080F38803F020039BB211
S214401B2063B9A37F43F00103A3770AF00F0A019B32
S214401B30A3EB8A0909EBCB0BA4F81CB07E6870882F
S214401B40DFF87C91C84796F8008008F00F08A0EBB5
S214401B5088001FFA80F8F088C847C0F30C00C00021
S214401B60D7F804C000238CF800308CF801308CF88D
S214401B7002308CF80330ACF8040080441FFA88F832
S214401B80ACF806806268A2B3536899888842C0F071
S214401B908F8056D0DA88824253D84FF0010E1CE030
S214401BA07268918888420CD2CCF80060002B00F016
S214401BB0C580D988814244D89288424541D31F6027
S214401BC01AE088423DD0D68886423AD823B1DB8890
S214401BD08B4218BF4FF0000E13461E68002EDFD112
S214401BE06BE01F60DA88BCF804309A4240F0A4806C
S214401BF002E04FF0010E6760A37F13F0010F00F084
S214401C009B80BEF1000F00F09780606843689B8819
S214401C10002B40F09180DCF80030002B66D05B68EB
S214401C20BCF806109A88914207D085E05268D98859
S214401C309388994240F0808013461A68002AF5D16E
S214401C4054E038461F4B98471F4A1388181A10808E
S214401C503846224B98476FE06FF0130BDFF884A0AE
S214401C60DFF88490776859463046D047314640463C
S214401C70C8473E68002EF5D1154B1B689C4203D1E1
S214401C802268134B1A6001E023682B60214604202B
S214401C90134B984740460B4B98470B4A1388181AE5
S214401CA0108040464CE038460C4B9847002047E0B2
S214401CB0CCF800204FF0010E40E0002B91D19AE77F
S214401CC085104000FD2640004C0940204119400048
S214401CD04809402015234000096B4000E924400095
S214401CE0352340007924400021274000A38B14333D
S214401CF0A38347683E68234653F8082FD3F804E08A
S214401D009868D9683A60C7F804E0B860F9601A691C
S214401D103A61A08B0C4B984778800023BB71FB71CF
S214401D20BB72FB7214213846084B98477881D4F82A
S214401D300480002E90D19FE7002001E067605BE7BB
S214401D4003B0BDE8F08F00BF79104000ED134000AF
S214401D502DE9F04F89B004460390059106928E8C8B
S214401D60D0F804A0BAF806003F4B9847C0F30C0BD7
S214401D7000F4005083B202932589143DADB2A6F11B
S214401D8014030193002BB8BF0733C3F3CF03049368
S214401D90002D62D0DB009BB207934FF01409CBF3C3
S214401DA00C08029B43EA0808019BAB4203DA48F45E
S214401DB00058079C00E02C460022214601202B4B71
S214401DC09847064600284AD04B4622464168039824
S214401DD0274FB84748441FFA80F914213046254B10
S214401DE0984728B13046244B98474FF0FF3038E0AC
S214401DF07368DAF80020DAF80470DAF80800DAF8DF
S214401E000C101A605F609860D960DAF810201A618A
S214401E1077684046DFF86880C047F88004F11400D1
S214401E2080B2C04778800023BB72FB7214213846CC
S214401E30124B9847788105984369069A31469847E9
S214401E4030460D4B98472D1BADB2049B9B441FFA62
S214401E508BFB002DA3D1002003E0002001E04FF0D3
S214401E60FF3009B0BDE8F08F85104000492540009E
S214401E700128400079244000E9244000ED1340004A
S214401E807910400008B5064B9847064B9847064BD6
S214401E909847064B9847064B9847064B984708BDC9
S214401EA02D204000A12240004D2340009954400080
S214401EB0D9284000B51F400070B504460E4615466A
S214401EC005201B4B9847002831D00146002303606D
S214401ED08660C5604460174B1D680DB9186070BDBC
S214401EE06868844214D2001B68600D60114B19600C
S214401EF070BD4B685068181A4860136823B15C6818
S214401F00A0420ED31A46F4E713680B60116070BD0A
S214401F10201A48602A6842B153689842E9D213466C
S214401F202A465C68201A5860EEE72A46ECE770BD01
S214401F30152340005809402008B5094B1B686BB96B
S214401F40084B1B6813B9084B1B683BB10122044B76
S214401F501A6000220549FA20054B984708BD00BF85
S214401F6050094020E4474020F8474020751F400075
S214401F70B91E400008B5094B9847094B1B6813B972
S214401F80084B1B682BB100220749FA20074B98479D
S214401F9008BD0022064B1A6008BD00BF9D324000B7
S214401FA0E4474020F8474020751F4000B91E4000D7
S214401FB05009402010B5002207494FF47A70074C6C
S214401FC0A0470022064941F28830A047054B984773
S214401FD0054B186010BD00BF0D204000B91E4000E4
S214401FE0ED1F40005D6640005409402008B5044B94
S214401FF098470022034941F28830034B984708BD72
S214402000A9574000ED1F4000B91E400008B5044BDC
S2144020109847002203494FF47A70034B984708BD0F
S214402020B51940000D204000B91E40000A4B23F071
S21440203003030A4A13604FF48051198000225A80E5
S2144020401A715A180648026001201071118051809A
S214402050044A1360704700BFC337402064094020DD
S214402060600940205C09402000283FD00346204AB3
S214402070126890423AD31F490868834236D270B4F9
S214402080A3F10801002403F8044C1B4C2468A14229
S21440209001D2194C216033F8085C5419A14210D083
S2144020A0267976B9A0420CD013480068844201D104
S2144020B011480160505B23F8080C505B10448C1AA2
S2144020C0448033F8060C1418A1420ED0257965B921
S2144020D0094D2D68A94201D107490C6033F8081C08
S2144020E0115233F8083C1A44508070BC704700BF09
S2144020F064094020600940205C09402003314FF6C7
S214402100FC730B400B2B03D9B3F5805F01D951E02C
S2144021100C232B4A1268824250D82A4909688842C2
S2144021204CD2F0B4A0F10804A41AA4B230F8085C6B
S214402130A5F10801091B89B299423DD33DD05619F5
S2144021403779CFB9555B04F108010B449BB21E4961
S21440215009688E4202D1D1181B4E3160D118002634
S2144021600E71D5524C8020F8083CD15AB1F5805FAC
S21440217023D00A44538020E003F114058D421CD836
S21440218004F108010B449BB2D1180F4D2D68A942AB
S21440219001D20D4D296000250D7130F8085CD552EE
S2144021A04C8020F8083CD15AB1F5805F05D00A44EF
S2144021B0538002E0002070470020F0BC704700BF0C
S2144021C064094020600940205C094020002859D01E
S2144021D0F0B4034603334FF6FC741C400B2C03D973
S2144021E0B4F5805F01D94FE00C242A4B19682A4B7E
S2144021F01B685B1A9BB2C4F58055AB4246DA26464E
S214402200C8180279002A38D1CA5A083AD21A37462C
S214402210A24232D31437BA4213D304F108021A4406
S21440222092B28C180025257105888D5263800280F5
S214402230012303718B5AB3F5805F04D00B445A8058
S21440224001E001230371144B1B68984213D11A799D
S21440225062B1124A11688B420BD00E4A14681B8832
S21440226023441A7922B18B42F9D102E0194600E0A4
S2144022701946094B1960083009E00388AB42BFDBBA
S214402280002004E000207047002000E00020F0BC62
S214402290704700BF640940205C0940206009402028
S2144022A02DE9F047174D25F00305174B1C1F174F18
S2144022B0174E03F11C0C4FF000080434A646C4F831
S2144022C0008037F8020FB8B1B6F800902B460022CF
S2144022D0114600E05346196003EB090A01321946DD
S2144022E093B29842F6D8013880B200FB099309FBB6
S2144022F00050CEF800001D440236A445DDD1BDE8AE
S214402300F08700BF6B09402028244020BE9E400036
S214402310D09E4000072800D9FEE7054B53F82030F2
S2144023201BB11968024A42F820101846704700BF91
S214402330282440200B4629B1034A52F82010196041
S21440234042F82030704700BF28244020704700BF26
S214402350F8B5044611B30D460A6843689A4220D041
S214402360114B186858B1114F026863689A4203D1FE
S214402370C668B847304600E0C0680028F4D10C4B29
S2144023801B6873B133B11A6822B161688A4201D1C1
S2144023902A681A60DB68002BF4D102E000236360F1
S2144023A0F8BD2B68FBE700BFE4474020653340009C
S2144023B0EC47402070B5044616461D46064B9847E7
S2144023C00EB1336800E00023A3600DB12B6800E037
S2144023D00023E36070BD00BF51234000F8B50446BB
S2144023E0002545608560C56080F82D50C561069D16
S2144023F005620B4E35786F1C377080F83050089D5C
S2144024000561084DA8472046079B984728B9064BC4
S2144024101A6822601C602046F8BD0020F8BD00BF48
S21440242048244020B5234000D4474020014B186044
S214402430704700BFD847402090F82D3013F0010F6A
S21440244013D110B5044643F0010380F82D30C3691C
S21440245003B1984794F82D3003F03003302B03D166
S214402460211D2046014B984710BD7047ED57400050
S21440247000B1C161704700BF59B30B4648B310B4B2
S214402480002905DA4C42A4B24289A24201D2FEE7B4
S2144024908CB2017B426809B1032906D1D21A00F1F9
S2144024A010018A4217D342600AE0013989B20129F5
S2144024B013D8002B11DA4189A14210D3D21A4260B8
S2144024C09BB242891A444281028913440381002008
S2144024D006E000207047012002E0012000E00120D5
S2144024E05DF8044B704700BF28B32DE9F041014624
S2144024F00024134D4FF00608124E13E00F680B7B76
S214402500032B02D10720B04708E0013B9BB2012BCA
S21440251002D84046B04701E00846A8470134E4B236
S2144025205FB13946CB89013B9BB2CB81002BE5D0CE
S2144025302046BDE8F081002070472046BDE8F08187
S21440254069204000352340002DE9F843032800F277
S2144025509180DFE800F008020406222604E00E26FA
S21440256002E0002600E0362617468846032A00F298
S2144025708480DFE802F0516B6B020720434B98479C
S214402580054620B90122424B1A70BDE8F883032362
S2144025900373002303608319133323F0030343605C
S2144025A0A0F80880033626F00306C6F5C066464502
S2144025B0A8BF464646810123C381B4B2C4EB080493
S2144025C0002C50DD81460727304E4FF00308384632
S2144025D0B04740B901222E4B1A7028462D4B9847DB
S2144025E00020BDE8F88380F80C8000224273026029
S2144025F0C9F800000481A2B2B2F5C06FA8BF4FF47C
S214402600C062428100F1100141600121C181A41ADB
S2144026108146002CDBDC26E006F1130020F00300A8
S214402620CB1C23F00303184480B21B4B9847054647
S21440263030B30644133626F003064660A0F80880FA
S214402640A0F80A800023036003730CE006200F4BBB
S21440265098470546B8B100234360A0F80880A0F824
S2144026600A80036007730123EB8100236B732846BF
S214402670BDE8F8830020BDE8F8830020BDE8F88375
S2144026800020BDE8F8830020BDE8F883152340000D
S214402690DC474020E9244000CD21400002898A42A0
S2144026A026D938B50446438999420BD90D46EB1ACC
S2144026B09DB223899B1A0B44238124686389AB42CD
S2144026C0F5D300E00D46227B4AB99D4207D06368A9
S2144026D01B1BE91889B22046064B9847044665817D
S2144026E02581206808B1044B98470023236038BDF5
S2144026F0704700BFFD204000E9244000034630B14B
S21440270000200130C0B21B68002BFAD17047002071
S214402710704700BF10B1C3890133C381704700BF03
S21440272028B1034619B110B4026812B909E0FEE7B1
S21440273002461C89088920441881106813460028E0
S214402740F6D118890A8902441A8119605DF8044B4B
S214402750704700BF2DE9F04730B10D46044619B129
S21440276002890B899A4200D2FEE74FF0000A57468C
S214402770DFF88890D04663896A89D81BCAEB020185
S214402780884201DB8EB201E0DB1B9EB2606869685E
S214402790324651443844C8473744BFB256441FFABD
S2144027A086FA6B89534501D82D68C2466389BB4279
S2144027B004D124680CB905B1FEE7474665B16A897D
S2144027C02B899A420AD12B6843B1FEE7236803B1AE
S2144027D0FEE7002DCFD10DE014B90BE02CB9CAE7C7
S2144027E0628923899A42F1D004E0628923899A4219
S2144027F0C1D1EBE70020BDE8F08700BFD5694000B7
S21440280000B9FEE72DE9F84F88469346064601B9DB
S214402810FEE74AB300252F46DFF854A0A9462BB161
S21440282072899A4202D89B1A9BB214E07489E41AC1
S214402830A4B25C4528BF5C4671682246194408EB42
S2144028400700D0472544ADB22744BFB2C4EB0B04C3
S2144028501FFA84FB4B463668BBF1000F01D0002EB2
S214402860DDD12846BDE8F88F0020BDE8F88F00BFD0
S214402870D56940006FF00900704700BFF0B4144BB4
S21440288018884FF480434FF6FF764FF44045114C7E
S214402890B04202D0013080B200E02846002254F810
S2144028A0221009680BE04F8B874207D1013B9BB251
S2144028B0002BEDD1064A1080184607E0C96800296B
S2144028C0F1D10132042AEAD1014B1880F0BC70479E
S2144028D008004020E09E4000704700BFF8B5037EE9
S2144028E003B1FEE704460D461AB91A4B984702460E
S2144028F018B3194901F1100751F8043B1B686BB136
S214402900588B904207D1DBB11E68E5B1DEB128682E
S21440291086421BD0D0B1DB68002BF1D1B942EBD157
S21440292015B12B6803B1236062830C4B1A68E260D2
S2144029301C600B4B98470020F8BD6FF00100F8BDB7
S2144029406FF00700F8BD6FF00700F8BD6FF00700A6
S214402950F8BD00BF7D284000E09E4000F447402080
S214402960391F400038B5037E03B1FEE70446022017
S214402970234B98470546002840D023690361638B64
S214402980438301230376637E4376237A43F0020330
S2144029900372A37A8372637A437223680360638BFD
S2144029A0F3B1184B1B689C4203D1E268154B1A6082
S2144029B014E0154A13608BB1DA6894420AD105E0F8
S2144029C0D3689C4205D1104B1A601346E268DA6021
S2144029D004E01A46002AF3D10B4B1A600023E3604A
S2144029E021460120094B9847094B6B61094B1A68F1
S2144029F0EA601D60084B9847284638BD002038BD21
S214402A0015234000F4474020F0474020352340003F
S214402A1075284000EC474020391F4000F0B401467E
S214402A20866A858DAA19046BC38E40F2B4508342E1
S214402A3088BF0346101BC31A002B01DBCD8509E077
S214402A40331B002B03DD0023CB85184602E0A41B76
S214402A50CC850020F0BC704710B50446838D1944E1
S214402A6089B240F66833994201D8818502E040F643
S214402A70683383852046074B984740F2D9239842CF
S214402A8006DDA37F43F00203A3772046024B984718
S214402A9010BD00BF1D2A4000114F400050B110B578
S214402AA00446406808B1044B984721460320034B30
S214402AB0984710BD704700BFE924400035234000CA
S214402AC048B138B50346044D1C681846A847234607
S214402AD0002CF9D138BD70479D2A4000417670479A
S214402AE038B505460320084B9847044650B1286839
S214402AF06968AA68EB6820606160A260E36060680D
S214402B00024B9847204638BD152340001527400005
S214402B1001617047C0F88010704700BFC1677047BA
S214402B20C0F88C10704700BF41617047C0F88810ED
S214402B3080F82020704700BF037E0A2B1AD0012B56
S214402B4018D970B50446806F18B10B4B98470023D0
S214402B50A367606F094EB047002565674FF6FF7361
S214402B60A386E06EB047206FB047E5662567A4F8B9
S214402B706A5070BD704700BFE9244000C12A40003B
S214402B802DE9F04F83B0B14A136801331360B04A61
S214402B901378013313701546AE4FDFF8ECB2AE4BE8
S214402BA01C68002C00F0798100262B7894F82120B0
S214402BB09A4201D1E4686DE184F82130227E022AEF
S214402BC005D194F84630062B40F08981A7E094F86A
S214402BD046300C2B53D094F89510C9B194F89430E5
S214402BE00133DBB284F894309C4A0A4412F8012C34
S214402BF09A4247D8002384F89430062902D80131F7
S214402C0084F895102046964B98474FF0000841E0D0
S214402C10B4F93410002901DB0131A186216FA1B33C
S214402C20B4F93400B4F94410884231DB022A0BD0A0
S214402C30B4F94010B4F9422002EBE1028949CB5C7A
S214402C4002FA03F3A4F844300023A386B4F86020C5
S214402C50B4F84C30934228BF13465B08A4F84E3075
S214402C60E28EB3EB420F02DA5300A4F84E30A4F8DB
S214402C704C2020467C4B98474FF000080AE04FF027
S214402C80010807E04FF0000804E04FF0000801E0BC
S214402C904FF00008237E062B10D1A37F13F0100FB1
S214402CA000F02181694B1B68626A9B1A282B40F210
S214402CB01A8108F101085FFA88F814E1227A12F0C6
S214402CC0080F31D0042B01D0072B30D15F4B1A6848
S214402CD0636AD21AD4F89000644B0344ABFB0313E8
S214402CE0B2EB531F06D908F101085FFA88F84FF097
S214402CF0010926E094F896105D4B03FB0103ABFBFD
S214402D000313B2EB531F15D920465A4B984794F8F5
S214402D109630013384F896304FF0000911E04FF0BA
S214402D2000094FF001080CE04FF0000909E04FF0B1
S214402D30000906E04FF0000903E04FF000094FF0AD
S214402D400108606F10B910E04FF000093F4B1B6858
S214402D50626A9A1AB4F9443003EB4303B2EB430F6A
S214402D6003D3454B984700236367237E032B0AD142
S214402D70364B1B68626A9B1A282B10D908F101084B
S214402D805FFA88F80BE0092B09D1304B1B68626A62
S214402D909B1AF02B03D908F101085FFA88F8B8F1BE
S214402DA0000F30D02046354B984716B1E368F360A5
S214402DB002E0E368284A1360B9F1000F0AD0A16A1E
S214402DC0206DA38B0193638B0093231D2246DFF86F
S214402DD0BC80C047D4F88C80D4F810A0D4F80C90AF
S214402DE021460120264B984700233B70B8F1000F40
S214402DF027D06FF009015046C0473B78002B7FF440
S214402E00CEAE4C4646E0D4F80C80E37F0133DBB2CE
S214402E10E37794F820209A4215D80023E3773B7056
S214402E20D4F888303BB12146206998473B78002B40
S214402E307FF4B5AE60BB2046124B984726464446C4
S214402E4028E04C4626E02646444623E0E847402015
S214402E504A244020E0474020E4474020009F40006E
S214402E60C5534000F09E400069524000B84C0A00EE
S214402E70F824010059534000C12A4000392B400035
S214402E8035234000114F4000D34D6210C5514000DD
S214402E9026464446002C7FF488AE184B1C684CB33C
S214402EA00025174EDFF86080164F626A33689B1A1B
S214402EB0F02B0FD92046C04715B1E368EB6002E01F
S214402EC0E2680E4B1A60D4F80C9021460120B847B1
S214402ED04C4601E02546E468002CE6D10AE00C2B7F
S214402EE07FF479AE29E7606F00287FF42DAF4FF06E
S214402EF0000954E703B0BDE8F08F00BFF847402014
S214402F00E847402035234000392B400010B50C469A
S214402F1002688A4202D1D368036016E0164B1A60F4
S214402F209AB1D36899420BD105E0DA68944206D14B
S214402F30114A136000E01346E268DA6005E0134683
S214402F40002BF2D100220C4B1A600023E36020468F
S214402F500A4B9847237E0A2B0BD0012B09D0A37F20
S214402F6013F0010F05D043F00203A3772046044B2D
S214402F7098470023237610BDF0474020392B400069
S214402F80114F400030B583B00446002900F0B080B1
S214402F90037E042B02D0072B40F0AA80A36F2BB9E8
S214402FA0A28D40F668339A4200F0A280A38B01932C
S214402FB0638B0093231D2246A16A206D594DA84776
S214402FC02046594B9847594B1A68944202D1E268BA
S214402FD01A6016E0564B1A609AB1D3689C420BD1E1
S214402FE005E0DA68944206D1514A136000E0134681
S214402FF0E268DA6005E01346002BF2D100224C4B23
S2144030001A600023E36001224A4B1A70237E042B89
S21440301009D10A232376484B1A68E2601C60474B66
S214403020984700207BE021460120454B98470020EA
S21440303075E0638BFBB1434B1A68944202D1E26859
S2144030401A6016E03A4B1A609AB1D3689C420BD18C
S21440305005E0DA68944206D1354A136000E013462C
S214403060E268DA6005E01346002BF2D10022304BCE
S2144030701A600023E36021460120314B9847002325
S2144030804CE021463048314B9847214602202C4B95
S2144030909847002342E0214624482C4B984701207D
S2144030A0244B18702146264B9847002336E020468E
S2144030B0274B9847034688BB052323760EE02046D9
S2144030C0234B9847034648BB0523237606E0204615
S2144030D01F4B9847034608BB0923237624B1204656
S2144030E01C4B984700201AE0002018E0002016E00D
S2144030F0237E072BFAD801A252F823F03330400043
S2144031008330400097304000AF304000BF30400032
S214403110ED304000ED304000CF304000184603B060
S21440312030BD00BFC5514000392B4000E447402029
S214403130F0474020E0474020F8474020391F4000F5
S21440314035234000F4474020EC4740200D2F4000F8
S214403150494E4000114F400008B5037E012B03D076
S214403160837F43F0100383770121014B984708BDC6
S214403170852F400010B5084642B114461189064BCB
S21440318098472046054B9847002010BD13B9044B7E
S214403190984710BD002010BD592A4000E924400041
S2144031A059314000F8B50446856F6F7B002383672E
S2144031B0D0F8806026B12A4601460069B04705E04F
S2144031C000232A4601461846144EB047C0B917F0A9
S2144031D0200F1BD0A38D40F66832934201D00133B6
S2144031E0A385D4F880509DB100231A462146206915
S2144031F0A84710F10A0F0CBF6FF009000020F8BD79
S21440320010F10A0F06D0A5670020F8BD0020F8BDD3
S2144032100020F8BD6FF00900F8BD00BF75314000D2
S2144032202DE9F843184A137801331370174F1546A3
S214403230DFF86480164E3C681CE0FEE784F82130D8
S214403240A37F13F0010F08D043F00203A377204674
S214403250C047A37F23F00303A377D4F80C90A36F53
S2144032603BB10023337020460A4B98473378002BF7
S214403270E1D14C462CB12B7894F821209A42DDD1EE
S214403280DBE7BDE8F88300BF4A244020E4474020FF
S214403290E0474020A5314000114F400008B5064B9E
S2144032A09847064A13780133DBB2137013F0010FC8
S2144032B001D0034B984708BD2132400049244020A6
S2144032C0812B40002DE9F04383B00446037E0A2B51
S2144032D008D101461C481D4B9847214601201C4BEF
S2144032E098472EE00E46D0F85080D0F82890D0F878
S2144032F08C50076901461748144B98470122164BD5
S2144033001A70206F08B1154B9847E06E08B1134B02
S2144033109847606F08B1114B98474EB1A38B019305
S214403320638B0093231D2246494640460C4EB047C9
S21440333021460120064B98471DB16FF009013846DB
S214403340A84703B0BDE8F083F84740200D2F400063
S21440335035234000E4474020E0474020C12A400053
S214403360C551400008B50121014B984708BD00BF34
S214403370C5324000034A1068034B1B68184410606F
S214403380704700BF0C004020E8474020F8B505468F
S21440339001203A4B98470446002835D1384B1B68E5
S2144033A073B1384A146801465A6AA21A8A4201D34F
S2144033B011461846DB68002BF6D108B1324B9847C9
S2144033C001202E4B98470446F0B9304B1B68ABB1F2
S2144033D02C4A176806467F215A7E8A4208D895426C
S2144033E006D35C6A3C1BB44202D3114626461846B6
S2144033F0DB68002BF0D108B1234B984701201F4BC8
S21440340098470446002837D0982200212046204B73
S2144034109847657640F66833A4F866300025A4F8E9
S2144034206850A385E3856572FF23A3724FF4067345
S214403430E3860623A4F84430A4F84050A4F842306B
S2144034404FF6FF73A3860123A4F84C30114B9847E0
S214403450A0652065A064E0650A4B1B6863620E4B5E
S2144034601B7884F82130E5770C4BC4F880300C4B41
S214403470C4F8903084F896502046F8BD1523400096
S214403480F8474020E847402065334000E447402066
S214403490096B4000753340004A2440207531400097
S2144034A000DD6D0008B54020014B984708BD00BFC1
S2144034B08D33400010B504460846064B984730B159
S2144034C0838C23B1283B9BB29C4228BF1C46204697
S2144034D010BD00BF51144000F8B50546214B1C688E
S2144034E0A089214B9847C0F30F30052838D91D4B8B
S2144034F01B6898891C4B9847000B0538800080B2A3
S21440350070B304F11402002340F2B35740F2B456AD
S2144035101C46D15C012903D011B3022903D018E020
S21440352001339BB21AE0D1184978042918D1191DE5
S214403530814215DC144494F802E0E17841EA0E2119
S2144035404C1EA4B2BC4288BF3146E98604339BB2C7
S21440355004E01444617819B10B449BB28342D7D33C
S214403560F8BD00BF4C244020851040002DE9F047B0
S21440357005468946C36898892A4B984710F0010F3C
S21440358011D1B9F1000F4BD0D9F80C102B894A68ED
S2144035909A1A254B1B681344B9F808209B1A002B2F
S2144035A008DA4C4632E04846204B984700242AE04A
S2144035B0A14603E01B4FDFF880801D4E8889B84740
S2144035C010F0010F08D0D5F80CA0BAF80C40012036
S2144035D0C0472043AAF80C00D9F800404846B047F8
S2144035E0F4B1E1682B894A689B1A0F4A1268134463
S2144035F022899B1A002BDBDA08E0521A91B2298105
S21440360068680C4B98472C60BDE8F087064B1968F5
S214403610E3685A682B899B1A0B44002BEDDCF2E7D3
S2144036200024F0E78510400050244020C12A400086
S2144036309D2A40009D264000791040002DE9F04725
S2144036400446984B1B7813F0100F00F08581B0F8B5
S2144036506050806D626D944B1B68D11A00290FDB59
S2144036609A4204D1914A1268821A002A08DB8F4A8D
S2144036701268904226D18E4A1268D289AA4221D92F
S2144036808B4A1268D1898EB2A4F86010D28991B262
S214403690B4F862708F4238BFA4F862206365834BEB
S2144036A01B68A36546B994F895305BB984F89430A6
S2144036B0012384F8953005E094F8953013B1002343
S2144036C084F89530794B1A68A36CD11A002937DCF8
S2144036D00021A4F8641077490988002940F0EF8358
S2144036E02844B4F86050A16D2944884240F0E783EE
S2144036F0A18E11F4004F40F0E2839A4240F0DF83FF
S21440370094F84720531CDBB29A4238BF84F84730BF
S21440371094F84730032B09D9B4F84C20E38E134471
S2144037209BB29A4207D2A4F84C3004E0032B02D155
S2144037302046614B9847E36E002B40F0C780E4E09C
S214403740012900F18880216D511A002900F38380F9
S214403750A17F11F0040F06D021F00401A177B4F840
S2144037604E10A4F84C10002084F84600B4F940509F
S214403770B4F8421001EBE501A4F84410D31A9BB20A
S214403780A4F86430B4F866100B44A4F8663084F8A5
S2144037904700A264237E032B18D9B4F84C20B4F813
S2144037A04E30934207D9E38E13449BB29A420DD2D1
S2144037B0A4F84C300AE0E38E03FB03F393FBF2F3EA
S2144037C013449BB29A4238BFA4F84C30236FFBB9DF
S2144037D038E0256F2B682367B4F8643053B1EB6844
S2144037E09889B04710F0010F04D0B4F86430013B1C
S2144037F0A4F864306868314B9847B4F86830181AB3
S214403800A4F8680028462E4B9847236F23B919E042
S214403810DFF8B4802B4E254FDB685868C047054616
S214403820236FB3F80890DB689889B04710F0030020
S21440383018BF012081443B68ED1A4D44002DC8DD79
S214403840236F1BB94FF6FF73A38601E00023A386C0
S2144038500023E3776FE70023A4F864306BE7E56E58
S2144038602B68E3660BB9A4F86A30B4F8643053B1F9
S214403870EB689889B84710F0010F04D0B4F864306C
S214403880013BA4F8643068680C4B9847B4F868303D
S214403890181AA4F868002846094B9847E36ECBB937
S2144038A033E000BF5C244020502440205824402071
S2144038B04C24402054244020F9524000FD2640002D
S2144038C09D2A400085104000A9104000A24EDFF817
S2144038D0B082A24F3568DB685868C0478246E36EC0
S2144038E0B3F80890DB689889B847CAEB050510F02E
S2144038F0030018BF01208144C9EB0505002D04DBF9
S2144039003368226D9B1A002BA9DDA36B23B3E26BB1
S21440391091490968521A002A1EDAB4F94010904AB2
S2144039201268D21AA2EBE10292B213B2114409B263
S214403930A4F84010002B01DA524213B2B4F94220E8
S214403940A2EBA20213449BB2A4F8423003EBE1037D
S214403950A4F844300023A363824B1B88002B00F05E
S2144039609C82227E062A00F29882A16A7E4A1268CB
S2144039708D1A012D2ED4481C801AC31A002B29DC20
S2144039802B467A4A5068428995420FDD0189491B89
S21440399089B200259B1A01814581006842899A4276
S2144039A0F8DB594209B2724B984703E0694209B2C4
S2144039B06F4B9847A26A6D496B4805680B892B4444
S2144039C09B1A0B81CB6802605A60A16A531A002B7F
S2144039D008DA5DE2531A002B04DAA37F43F00203B1
S2144039E0A37755E2A38DC3F1010313445B1A002B62
S2144039F000F34E828A4240F069815C4B1D89DB6849
S214403A009889564B984710F0030018BF01202B1892
S214403A109BB2544A1380A28D9A4235D2534BDB68F0
S214403A2098894E4B984710F0010F0DD04F4BDE68EB
S214403A30B5892846494B984700F03E004D4B98477D
S214403A4025F47C552843B081484BA28D1A81DB680B
S214403A509889424B984700F0020083B21BB1434A14
S214403A601389013B1381414D29896868424B984729
S214403A702E89EB689889394B984710F0030018BF99
S214403A8001203044374B1880636F002B00F09B803A
S214403A90364BDB689889314B984710F0010F0BD0B6
S214403AA0606F002800F08F80344D03686367A84736
S214403AB0606F0028F9D186E0D4F87490B9F1000F11
S214403AC000F00182D9F80C10264B1B884A689A1AD7
S214403AD0254B1B681344B9F808209B1A002BC0F2EC
S214403AE0F4811E4E214FDFF88C8000E0A94688897D
S214403AF0B04710F0010F1AD0FB689889B04700F025
S214403B00020083B29BB9D7F80CA0BAF80C5001203B
S214403B10C0472843AAF80C003D89FB689889B047FF
S214403B2010F0030018BF012028440E4B1880D9F827
S214403B3000504846114B9847002D00F0C481E96874
S214403B40084B1B884A689A1A074B1B6813442A89F5
S214403B509B1A002BCADAB9E1582440208510400051
S214403B60E8474020542440205024402064244020ED
S214403B7079244000791040009D2640009D2A400050
S214403B80A9104000854B521A1A81DB689889844BED
S214403B90984700F0020083B21BB1804A1389013B6C
S214403BA013817E4E318970687E4B98473789F3681B
S214403BB098897B4B984710F0030018BF0120384483
S214403BC0794B18806567784B1988784B1A680A4491
S214403BD0A262A38D5B1AA3852046754B98476F4B10
S214403BE05B681A8922B1734A136000226B4B5A6095
S214403BF06A4BDB6898896A4B984710F0010F04D0EF
S214403C006D4A137843F020031370656F002D4DD036
S214403C10EB68A26A5968914248D1DFF89091604FAC
S214403C20DFF88C81C9F800202E899889B84710F0B3
S214403C30030018BF01200644A36A1E44A6622E89CC
S214403C40EB689889B84710F0030018BF0120064477
S214403C50A38D9B1BA3852046C04769680B894BB143
S214403C60544B186810B1554B984701E0514B1960BA
S214403C7000236B60EB689889B84710F0010F09D0B5
S214403C804D4A137843F020031370237E042B01D152
S214403C90072323762B6863672846494B9847656F0A
S214403CA025B1EB685A68A16A8A42BBD0A37F13F05D
S214403CB0010F06D023F0010343F00203A377BDE8CB
S214403CC0F08743F00103A377BDE8F08720463D4BDD
S214403CD09847666F5EB1F1684A68344B186882420E
S214403CE00BD0002700F1FF3E00F1010C1EE02B48F0
S214403CF0354B98476067BDE8F08735460026274B2A
S214403D001A892B899A4240F2F58024482E4B9847D0
S214403D100346002800F0EE800EB1306000E0606799
S214403D2029461846294B9847BDE8F08777B9831A45
S214403D30002B4DDA1948244B9847002800F0DA80CB
S214403D4060673146214B9847BDE8F087FB685B6863
S214403D50C3EB0E03002B3BDBC2EB0C03002B37DC24
S214403D600E48194B98470446002800F0C380FB686D
S214403D7059680E4B1B683A89D21A0A44002A05DD58
S214403D805B1A99B239817868064B98473C60314651
S214403D9020460E4B9847BDE8F08700BF642440207D
S214403DA0851040009D26400054244020502440204A
S214403DB01D2A4000602440205D24402021274000EA
S214403DC09D2A4000994E4000E12A40006D35400053
S214403DD03568002D40F08680821A002A40F38A809B
S214403DE08889454B984710F0010F40F08380434840
S214403DF0434B9847306000287CD0F3685968414B65
S214403E001B683289D21A0A44002A05DD5B1A99B229
S214403E10318170683C4B98473C4B1A88394B1B683D
S214403E201A44A18DA36A0B449A4263D93368DB686F
S214403E309889314B984710F0010F0DD03368DF68F2
S214403E40BD8928462C4B984700F03E00304B98479B
S214403E5025F47C552843B8813268A16AA38D0B446B
S214403E60284909685B1A1381336819895868264BB4
S214403E70984733681C89DB6898891F4B984710F031
S214403E80030018BF01202044204B1880BDE8F0876F
S214403E902046204B9847BDE8F0871A4B1B68A26A1D
S214403EA0991A002905DB01339B1AA28D9B1A002B19
S214403EB020DDA37F43F00203A377BDE8F08700230D
S214403EC084F8473037E400257CE64D460D4B1968AC
S214403ED0EB685A680D4B1B889B1A0B44002B3FF728
S214403EE051AE6FE6E9684A68374682423FF407AF0C
S214403EF02E461BE7BDE8F08785104000642440202E
S214403F00E12A4000502440209D2640005424402072
S214403F1079104000994E40002DE9F04383B00446A6
S214403F200D464368197801F00F0103EB8103894A77
S214403F30136089004942884B9847002840F0A8847F
S214403F402389132B40F2A4842946844B1868844B5B
S214403F509847002840F09C84804B1B6803F0F00391
S214403F60E02B00F095842389009306237B4A7D4905
S214403F7020467D4DA847002840F08A84754B1B6834
S214403F8098897A4B9847000BC0EB8030810009B285
S214403F902046714B9847002840F07A846D4D2F6834
S214403FA03888724EB04738802F687888B047788017
S214403FB02F687868DFF8E481C04778606C4B1860FB
S214403FC02F68B868C047B8606A4B18602F68F88991
S214403FD0B047F8812B689889B0475FFA80FE0EF0AC
S214403FE03F02654B1A701EF0030118BF012123895A
S214403FF0194489B2614B1980614B186840B32F68E9
S2144040003E88584BD3F800C0544BD3F80080054642
S214404010002200E01D46AB8BB34211D1B5F81A9092
S2144040207B8899450CD16B68634509D12B6843451D
S21440403006D152B1EB68D360E860514B1D6004E096
S214404040EB682A46002BE5D102E0002D40F0F880D0
S2144040504C4B1868002841D03E4B1E683288414B76
S214404060D3F800C03D4B1F68838B934233D1438BBC
S21440407075889D422FD1456865452CD10568BD425F
S21440408029D11EF0040F22D11EF0020F12D0384D57
S2144040902E68856A751B13D4878DED1B002D0FDCAB
S2144040A0019200932F4B2D4A314432480068364DDA
S2144040B0A8470CE01EF0010F02D0344B1B68436249
S2144040C029B1837F43F002038377314B98472046DC
S2144040D0304B9847FEE3C0680028C5D12E4BD3F836
S2144040E000C0BCF1000F00F0B5831A4B1F687888FB
S2144040F01A4B1E686546002200E01D466B8B8342C5
S21440410004D12B68B34206D02DB123B1EB682A46C2
S214404110002BF2D19EE3002D00F09C832AB1EB6881
S214404120D360C5F80CC01C4B1D601EF0040F40F059
S21440413083801EF0100F33D00D4B18683B880193D8
S2144041407B880093074B054A01440A4800680E4D99
S214404150A84771E04C24402079244000B8374020DE
S21440416079174000B0374020591340008510400072
S21440417050244020582440205C2440205424402092
S214404180E4474020F8474020C5514000E8474020DB
S214404190114F4000E9244000EC474020A910400061
S2144041A01EF0020F48D0687E914B9847064600287E
S2144041B042D0904B1B6803606B8B43838E4B1B68CF
S2144041C043608E4B1A6813888383032303768C4B95
S2144041D01B68591C81620163D189A0F86010D2899E
S2144041E0A0F86220A0F84E10013B43652B6903619E
S2144041F06B6943612B7A23F073030372814B1A6811
S214404200C2601860804B98470122804B1A70304637
S2144042107F4B9847311DF08E7E4B9847F086122193
S21440422030467D4B984720B1002130467B4B98471F
S21440423002E030467A4B984720467A4B984749E307
S214404240794B00221A60218919815C60DF60774BC8
S2144042501A60774B1A701EF0080F03D0637B43F04A
S21440426001036373AB6F6BB12846724B984710F1EE
S2144042700A0F00F0E082AB6F23B16F4B1B88002B18
S21440428040F0D9826D4B1D606D4B1B7813F0040FC8
S21440429023D02B7E022B07D12B6D6A4A126893429D
S2144042A014BF002301230BE0554B1B68AA6A9B1AD8
S2144042B000F14482AA8D9B1A002BCCBF0023012319
S2144042C0002B00F03B825A4A137843F008031370E1
S2144042D0AB7F23F00103AB7730E213F0020F09D037
S2144042E02B7E023BDBB2012B04D9AB7F43F00203AB
S2144042F0AB7723E2AB7F13F0100F40F0CD82524BEA
S2144043001B686B62C8E24E4B1B7803F01203122BFD
S21440431056D12B6FDB6858684C4B98470130494B59
S2144043201B6898424CD1B5F866300133A5F8663024
S214404330334B1B685A1CAA622A63A8642F4A126829
S214404340D189A5F86010D289A5F86220013B6B653B
S21440435004232B76E918E88E2E4B9847E88600EB28
S21440436080035B00A5F84E30B5F84C30012B01D1E8
S214404370400080B2A5F84C00B5F86830013BA5F87F
S2144043806830286F03682B67314B98472B6F1BB9F3
S2144043904FF6FF73AB8603E00023AB8685F84630C6
S2144043A0D5F884303BB1002229462869984710F159
S2144043B00A0F00F04082AB7F43F00203AB77BDE1CB
S2144043C01F4B1B7813F0100F00F0B8810B4B1B6887
S2144043D0194A10880A4A11681A8801925B88009325
S2144043E0054B044A0144174800681A4CA047A5E10B
S2144043F08D334000B8374020B03740204C24402012
S21440440050244020E4474020391F4000E0474020E9
S214404410D9344000B5344000714D4000C5324000AC
S214404420114F4000E924400064244020602440208E
S2144044305D244020A531400054244020FC474020C5
S2144044405C24402058244020E8474020A9104000E3
S2144044509D2A4000C5514000934B1B7813F0100F27
S21440446049D0924B1868AB6CDB43C34233D42B6DB8
S214404470C31A002B2FDC04232B766B6943B1002232
S21440448029462869984738B110F10A0F00F0D381C1
S2144044902846874B9847CEE1B5F84C402846854B92
S2144044A09847B5F8643013B1013BA5F86430012C49
S2144044B0EB8E04BF5B009BB2A5F84C307E4B1B785E
S2144044C013F0200F00F03A81AB7F43F00203AB7746
S2144044D007232B7632E1794B1B68794A1488794A50
S2144044E011681A8801925B880093774B774A21447B
S2144044F0774CA04722E113F0020F00F01F81AB6A11
S214404500013B704A1268934240F018812846714B2E
S214404510984713E12846674B9847674B1B7813F03C
S214404520200F00F00B81AB7F43F00203AB770723ED
S2144045302B7603E128465F4B98475F4B1B7813F07A
S214404540200F41D0584B1B7813F0100F35D02A6DF2
S214404550564B1B689A4230D1AB7F43F00203AB7791
S21440456028465D4B98475D4B1B68AB4203D1EA68D3
S2144045705A4B1A6015E05A4A1360002201200AE09E
S214404580D968A94205D10AB1554A1360EA68DA608B
S21440459007E002460B46002BF2D112B10022504BE8
S2144045A01A6001224F4B1A700A232B764E4B1A681C
S2144045B0EA601D604D4B9847C0E0AB7F43F0020376
S2144045C0AB7708232B76B9E0374B1B7813F0100FE8
S2144045D000F0B4802A6D354B1B689A4240F0AE809E
S2144045E006232B76AAE02846324B9847324B1B7858
S2144045F013F0200F00F0A280AB7F43F00203AB77AE
S2144046002846354B9847354B1B68AB4203D1EA6882
S214404610324B1A6015E0324A1360002201200AE04D
S214404620D968A94205D10AB12D4A1360EA68DA6012
S21440463007E002460B46002BF2D112B10022284B6F
S2144046401A600122274B1A700A232B76264B1A68CB
S214404650EA601D60254B984770E02846154B984702
S214404660114B1B7813F0100F68D02A6D0F4B1B6848
S2144046709A4263D12846184B9847184B1B68AB4262
S21440468003D1EA68154B1A603AE0154A13600022D7
S21440469001202FE0D968A9422AD10AB1104A1360F6
S2144046A0EA68DA602CE000BF5C24402058244020B2
S2144046B0653340003D3640005D2440204C24402079
S2144046C05424402050244020B0374020B837402063
S2144046D0C55140009D524000392B4000E4474020E1
S2144046E0F0474020E0474020F8474020391F400030
S2144046F002460B46002BCDD112B10022774B1A60F2
S2144047000122774B1A700A232B76764B1A68EA609A
S2144047101D60754B984711E02846744B9847744B7C
S2144047201B7813F0100F09D02A6D724B1B689A4203
S21440473004D1714A137843F0100313706E4B1B7804
S21440474013F0080F0FD0D5F88C301BB16FF00A016C
S2144047502869984729466948694B98472946012061
S214404760684B984767E013F0100F13D0AB7F13F0F9
S214404770100F06D1D5F88C301BB16FF00B012869AD
S214404780984729465D485E4B9847294601205D4B31
S214404790984750E0B5F864203AB1EB6F2BB1294604
S2144047A02869984710F10A0F45D0574B1A68F2B15E
S2144047B0AB7F13F0100F06D01046544B9847284650
S2144047C0534B984737E0D5F8804024B1002329461C
S2144047D02869A04704E00023294618464D4CA047C8
S2144047E010F10A0F27D010B1474B1B68AB67424BFE
S2144047F01B7813F0200F18D0AB6F23B15A7B42F0D2
S21440480020025A7311E0AB8D40F66832934201D0D5
S2144048100133AB85D5F880403CB100231A46294683
S2144048202869A04710F10A0F05D000223A4B1A60BB
S21440483028463A4B98470023374A1360324A13605B
S214404840374B5868002845D0304B98470022344BA9
S2144048505A603FE0334B1B689889334B984700F0CB
S214404860040083B283B92F4B1B68304A1088304A05
S21440487011681A8801925B8800932E4B2E4A014499
S2144048801C4800682D4DA8472046204B984721E0FD
S21440489020461E4B98471DE0002385F89630284654
S2144048A0274B98472B7E023B072B3FF647AF01A28C
S2144048B052F823F007434000594440001545400055
S2144048C035454000E7454000154540005B46400002
S2144048D01947400003B0BDE8F08300BFF0474020D2
S2144048E0E0474020F8474020391F40003D36400012
S2144048F05C244020582440205D244020E44740204B
S2144049000D2F40003523400060244020E92440001D
S2144049106533400075314000FC474020114F400051
S214404920642440204C2440208510400054244020DD
S21440493050244020B0374020B8374020C551400072
S214404940D93440002DE9F04780460F461546994633
S2144049509DF8206006F0010406F00202D3B2002B58
S21440496018BF0C2303EB8403DCB20320214B98478B
S21440497028B93846204B98470020BDE8F087824645
S21440498086720023036047603B891B1B038114210A
S21440499038461A4B984728B15046194B984700203E
S2144049A0BDE8F087DAF804305F68CAF80C70B8F8EB
S2144049B01A00144EB0473880DAF80C70B8F81C006D
S2144049C0B0477880DAF80C7048460F4B98477860C6
S2144049D0DAF80C70A408053445EA0434A0B2B047AF
S2144049E0B881DAF80C3000229A74DA745046BDE882
S2144049F0F08700BF15234000E9244000792440009A
S214404A009D2A400079104000911040002DE9F8435F
S214404A1006460C46994614321144002289B20120BB
S214404A20144B9847804610B34568708B124FB84772
S214404A302880B08BB8476880C5F80490B06A0F4BA2
S214404A409847A860A0080530000300F4704040F086
S214404A501000B847A881F08DB847E88100232B7432
S214404A606B74AB74EB74F38DB26A13443363404695
S214404A70BDE8F88349254000791040009110400079
S214404A8001B9FEE72DE9F04F8BB00D46047EA11E1E
S214404A90C9B2022902D9072C40F04E81002A00F004
S214404AA03281B0F86610914206D2837F63F07F036E
S214404AB083774FF0FF3047E1B0F86810072940F29F
S214404AC02281837F63F07F0383774FF0FF303BE1A3
S214404AD01E463368002BFBD10293B27A02F00100E7
S214404AE002F00202D2B2002A14BF0C210021328901
S214404AF0069B9B1AA3EB8003591A89B2B4F86A50F6
S214404B004DB15746AA4528BF2F46ED1BADB2C91B2F
S214404B1089B2039602E0029B03930027002918BF40
S214404B20574529D242B3C7EB0A038B42A8BF0B4670
S214404B301FFA83F900220320854B984780460028B9
S214404B4000F0FD804589C9EB0505ADB2A0F8089098
S214404B50A0F80A904A46059BD91940687D4B98476D
S214404B60B9441FFA89F940467B4B9847049B034457
S214404B709BB20493039602E0B9464FF00008CA453C
S214404B804BD900230293079301E0039B0793C9EB9D
S214404B900A0B1FFA8BFB06998B4528BF8B460022D3
S214404BA010466B4B98470546002800F09180438995
S214404BB00893A0F808B0A0F80AB05A46059B03EB45
S214404BC009014068634B98472846634B9847049BC7
S214404BD003449BB20493082B03D928465F4B98475F
S214404BE076E0E36D002200924B44294620465C4D19
S214404BF0A847039000286BD0029B13B1079A106019
S214404C0001E0039B0293D9441FFA89F9CA45BCD8F0
S214404C10089BCBEB0305ADB201E00023029337B30C
S214404C20D6F80490B9F1000F02D11DE0994601E094
S214404C30DFF820B1B9F808303B44A9F80830D9F875
S214404C400030002BF2D1B9F80A30D9F804003A46C1
S214404C5005991844D847B9F80A303B44A9F80A30B1
S214404C60D9F80030002BE1D133891F443781A4F8AE
S214404C706A50B8F1000F08D041467068394B9847E3
S214404C803289B8F808301344338116B9029BE3667C
S214404C9001E0029B3360E36D5344E365B4F866304D
S214404CA0CAEB0303A4F86630BDF81030A4F86830A9
S214404CB0039BFBB1DC68FCB1099B13F0020F1DD1CE
S214404CC0A5890820284B98472843A08100203BE030
S214404CD0A37F63F07F03A377B8F1000F02D040466E
S214404CE01E4B9847029B5BB11846204B98474FF0A7
S214404CF0FF3029E0002027E0002025E0002023E0C8
S214404D004FF0FF3020E00595099392460446B0F8F0
S214404D1062305B08C28E934228BF13460693B0F8B3
S214404D2068300493C66E002E7FF4D3AE03960025FB
S214404D302F46A946A84622E76FF00C0004E0A37F62
S214404D4063F07F03A377CDE70BB0BDE8F08F00BFDD
S214404D5049254000D5694000FD264000E924400032
S214404D60454940002127400079104000C12A4000B4
S214404D70B0F86830072B06D9837F63F07F038377CC
S214404D804FF0FF30704770B582B001F002031E1C32
S214404D9018BF0126002B14BF04230023B0F866205A
S214404DA0002A46D00D460446002219461046234B9C
S214404DB09847014630B9A37F63F07F03A3774FF04F
S214404DC0FF3038E00096E36D2A4620461C4EB0473A
S214404DD0014630B9A37F63F07F03A3774FF0FF30DF
S214404DE029E0E26E12B9E06604E01A461368002B2A
S214404DF0FBD111600023A4F86A3015F0030F07D0EA
S214404E00E36D0133E365B4F86630013BA4F86630E1
S214404E1015F0010F03D0A37F43F02003A377486823
S214404E20084B9847B4F868301844A4F86800002047
S214404E3001E04FF0FF3002B070BD00BF4925400092
S214404E4045494000FD26400070B50546C46E0CB985
S214404E5017E01C462368002BFBD1E36898890B4B70
S214404E60984710F0070F0CD1E668B4890120084B2C
S214404E7098472043B081AB7F43F02003AB770020B8
S214404E8070BD01212846034B984770BD85104000F1
S214404E9079104000714D40002DE9F04182B0044643
S214404EA0006D164B98470346002211462046144D87
S214404EB0A847F0B105464768A37F23F00303A377CE
S214404EC0261D03890093062332462146DFF83C80A0
S214404ED0C0473882A37A06220192627A009232460E
S214404EE021462846074CA0472846074B98470020AF
S214404EF001E06FF0010002B0BDE8F0819110400083
S214404F000D4A400039174000E9244000591340003C
S214404F10A04B1B68834200F031812DE9F04F85B0ED
S214404F200546B0F84C20B0F860309A4228BF1A4682
S214404F309246C46E837F13F0020F0FD054B1E368DD
S214404F405868954B98472389AA6C9B1A1844824503
S214404F5080F016812846914B984718E1D0F870802B
S214404F60B8F1000F04D1002C40F0F080FBE09846EA
S214404F70D8F80030002BFAD1F5E72B6FB3B1AB7FF2
S214404F8013F0440F12D1EA6E2AB1116871B9118933
S214404F90EA8E91420AD2B5F866203AB1B5F8682052
S214404FA0072A03D813F0A00F00F0DD802368EB66D5
S214404FB02B7E022B0CD0D4F80C90B9F80C70102035
S214404FC0D8473843A9F80C00AB7F23F00303AB77F0
S214404FD0E768A86A724B9847B860E768E88DD84794
S214404FE0F881EB8DAA6A13442B63A37A13F0010F62
S214404FF00AD0E768291D40F2B4506A4B984740F003
S2144050000170674B98477861B5F93430B3F1FF3F8C
S21440501001D10023AB860DB12B6833B9281D624BF6
S2144050209847002833D043682B60AB6B33B95F4B4F
S2144050301B68AB63E3685868B047E8636268E36838
S21440504051685B1A9BB25189C91A518161680A89B5
S214405050D31A0B816368E2685A60E36800221A74C8
S2144050605A74E7682A1D60680389009306230392F2
S2144050702946DFF84891C8473882AB7A60680622EE
S21440508001926A7A0092039A2946494FB847E368E4
S2144050905868B0470746B4F80890E3689889454B87
S2144050A0984710F0030018BF0120484438442B6D41
S2144050B01B1A002BB8BF28652789E36898893D4BA3
S2144050C0984710F0030018BF0120F84238D000235C
S2144050D023602B6F13B92C67A04634E0E36858680A
S2144050E0B0470746D8F80C305868B047381A0028FA
S2144050F022DA05F170092B6F3BB917E02468236864
S21440510033B94B46A1461C4610E022464C469146D3
S214405110DB685868B0470746D9F80C305868B0473F
S214405120381A0028EADB4B46A1461C46D9F8003020
S2144051302360C9F8004006E0C8F80040A04602E0F8
S21440514020461D4B9847EC6E1CB90EE0124EDFF819
S21440515070B0E3685868B0472389AA6C9B1A184415
S2144051608245BFF40AAFEB6E13B90023A5F86A3048
S214405170AB7F03F07F03AB77002008E0002070474A
S214405180D5F87080B8F1000F7FF4F2AEDEE705B0D8
S214405190BDE8F08FFC474020A9104000994E4000E3
S2144051A091104000B534400051144000E84740207C
S2144051B039174000851040009D2A40005913400092
S2144051C0791040002DE9F04F83B081468A469346D9
S2144051D098460022142101201D4B9847002833D0C2
S2144051E005464468BDF830001A4EB0472080BDF8EA
S2144051F03400B04760804846174FB8476060504616
S214405200B847A06045F21400B047A08100260B23A3
S214405210A3736823E37326746674A674E6742B89B6
S214405220009306234246594628460C4FB8472082EC
S214405230062301930096FF23424659462846084CCB
S214405240A0472846074B984703B0BDE8F08F00BFFD
S2144052504925400079104000911040005913400005
S21440526039174000E9244000026F12B970471A46C9
S21440527000E008B51368002BF9D1C36E1360036FC6
S214405280C3660022026790F84630013380F8463005
S2144052908263014B984708BD114F40002DE9F0410D
S2144052A0076F2FB380463B68036700F16C05C36EFB
S2144052B023B90EE02D682B680BB90AE00D4EDB686B
S2144052C05868B0470446FB685868B047201A00281C
S2144052D0F0DB2B683B602F603B680BB9A8F86A3060
S2144052E098F84630013388F846300023C8F83830FE
S2144052F0BDE8F081A9104000036F4BB3837F13F0E5
S214405300040F25D110B50446124B9847B4F84C30DC
S214405310B4F86020934203D95208A4F84E2002E025
S2144053205B08A4F84E30E38EB4F84E20B2EB430F41
S21440533002DA5A00A4F84E2003EB4303B4F84E209A
S2144053401344A4F84C30A37F43F00403A37710BD66
S214405350704700BF9D5240002DE9F04182B00446A0
S214405360006D0138124B98470346002211462046EE
S214405370104DA847C0B105464768261D03890093CF
S214405380062332462146DFF83880C0473882A37A63
S2144053900622019200220092324621462846064CBA
S2144053A0A0472846054B984702B0BDE8F08100BFAD
S2144053B0911040000D4A400039174000E924400053
S2144053C0591340002DE9F04182B0056F15B9C56EFE
S2144053D0002D4FD00446EB689889284B984710F02C
S2144053E0010F3DD02B8923B33AE0251D3389009326
S2144053F006232A4621463046DFF89880C047388242
S214405400A37A06220192002200922A46214630467E
S2144054101B4CA04730461B4B98472BE07768B7F9A4
S2144054200C5025F47C551120174B98472843B881DB
S214405430DBE7EB685B68002211462046134DA84721
S21440544006460028EAD115E07768686803892A8905
S2144054509B1A9BB2012207F114010D4DA847C4E7E1
S214405460EB685B68012200212046084EB04706469E
S2144054700028E9D102B0BDE8F08100BF85104000A9
S21440548039174000E9244000791040000D4A40009A
S2144054900128400059134000704700BF2DE9F04FE7
S2144054A085B004468946D0F8048098F8001001F08C
S2144054B00F0103898A1CB3EB820F04DB8900494243
S2144054C05B4B984718B120465A4B9847ACE0D4F807
S2144054D004A04946584B1868584B98470746BAF8B0
S2144054E00000574EB0470546BAF80200B047554B45
S2144054F0D3F800E0BEF1000F40D04F4BD3F800C0C9
S214405500514BD3F800B0734600263246039400E071
S2144055100B46598A814229D1002F7DD163B1196843
S21440552051B1614522D107E031B12BB18CEA01047B
S214405530D9F808100C4219D1002E71D1197C01F00F
S2144055400401C9B2002908BF1E4669E013F1040FE2
S21440555003D0596809B1594508D1039C62B1D9684E
S214405560D160C3F80CE0374A136005E0D9681A46A4
S2144055700029CDD1039C00E043B946B9D9F80420B0
S2144055802D4B1B689A4243D1002600E01E46BAF8CF
S21440559006306BB1238900931123274A2A492046B7
S2144055A0DFF8AC90C84718B12046224B98473BE0FE
S2144055B06FF0070120461E4B984718B120461D4BFA
S2144055C0984731E066B1B76937B1F06900951E4B30
S2144055D022463146B84727E02046164B984723E0F8
S2144055E097B9154B1B6803F0F003E02B0CD098F8E6
S2144055F0001001F00F010231890020460C4B9847FD
S21440560003212046114B984720460A4B98470BE00B
S2144056102046084B984707E019688C4584D18BE7AD
S214405620998AA942A2D191E705B0BDE8F08F00BFA4
S21440563079244000E9244000B837402079174000DC
S2144056408510400000484020B0374020BD12400042
S2144056505913400010B5044600EB8002094B53F83E
S214405660220038B1084B984704EB84039B00002186
S214405670044AD15004EB8404024B03EB8404002319
S214405680A37410BD78244020E92440002DE9F04F53
S21440569083B03A4A002398460A269E469B4634469E
S2144056A0B446B14601911546977C0A2C02D10FB9F3
S2144056B05CB221E007B330B101688A4669688A4522
S2144056C001D158B256E0012F0ED12F682FB1ED7C94
S2144056D0454511D35EB2A8460EE0ED7C5D450BD342
S2144056E04FFA83F9AB4607E0012F05D9ED7C7545A7
S2144056F002D34FFA83FCAE46013314320A2BD2D182
S214405700019911F0020F2DD105460A2C03D111F054
S214405710010F04D129E0092C01DCE4B211E0BCF110
S214405720090F02DC5FFA8CF408E0B9F1090F02DCDD
S2144057305FFA89F402E0092E1ADCF4B22046104BD8
S214405740984735B1296804EB84030C4A02EB83037F
S214405750596004EB8402094B03EB82030022DA749F
S21440576060B207E04FF0FF3004E04FF0FF3001E05A
S2144057704FF0FF3003B0BDE8F08F00BF78244020E4
S2144057805556400038B54C681D6825609B88A380F8
S2144057901368C4F806309388638108232373002374
S2144057A063738369984738BDF8B50E4C00250E4E96
S2144057B0022728462146A27C72B1E37C0133DBB245
S2144057C0E374EF2B03D8012B03D9012A01D1B0474C
S2144057D002E0032A08BF8F74013514340A2DE8D13D
S2144057E0F8BD00BF78244020555640002DE9F843C8
S2144057F00546884600222A210320224B9847002847
S2144058003CD00746446801201F4B9847A082D5F8F5
S2144058102730C4F81630B5F82B3063831B4B186816
S21440582020629B88A3841A4B186820609B88A380BC
S214405830D5F82730C4F80630B5F82B3063816B684E
S214405840E361D8F80030C4F826300022A273012362
S214405850E3730823237462740622A2740422E2745B
S214405860237306236373AB69394628469847044634
S2144058703846084B98472046BDE8F8834FF0FF303F
S214405880BDE8F8834925400079104000109F40004D
S214405890089F4000E924400070B505460E46144671
S2144058A002EB8202144B03EB82039B7C022B15D146
S2144058B01346114A02EB8303DB7CE32B0ED904EB41
